{
  "contractName": "LinkCoin",
  "abi": [
    {
      "inputs": [],
      "stateMutability": "nonpayable",
      "type": "constructor"
    },
    {
      "inputs": [],
      "name": "linkCoin",
      "outputs": [
        {
          "internalType": "contract IERC20",
          "name": "",
          "type": "address"
        }
      ],
      "stateMutability": "view",
      "type": "function",
      "constant": true
    },
    {
      "inputs": [
        {
          "internalType": "address",
          "name": "account",
          "type": "address"
        }
      ],
      "name": "balanceOf",
      "outputs": [
        {
          "internalType": "uint256",
          "name": "",
          "type": "uint256"
        }
      ],
      "stateMutability": "view",
      "type": "function",
      "constant": true
    }
  ],
  "bytecode": "0x608060405234801561001057600080fd5b5073a36085f69e2889c224210f603d836748e7dc00886000806101000a81548173ffffffffffffffffffffffffffffffffffffffff021916908373ffffffffffffffffffffffffffffffffffffffff16021790555061031e806100746000396000f3fe608060405234801561001057600080fd5b50600436106100365760003560e01c80636a151ea51461003b57806370a0823114610059575b600080fd5b610043610089565b6040516100509190610224565b60405180910390f35b610073600480360381019061006e919061018a565b6100ad565b604051610080919061023f565b60405180910390f35b60008054906101000a900473ffffffffffffffffffffffffffffffffffffffff1681565b60008060009054906101000a900473ffffffffffffffffffffffffffffffffffffffff1673ffffffffffffffffffffffffffffffffffffffff166370a08231836040518263ffffffff1660e01b81526004016101099190610209565b60206040518083038186803b15801561012157600080fd5b505afa158015610135573d6000803e3d6000fd5b505050506040513d601f19601f8201168201806040525081019061015991906101b3565b9050919050565b60008135905061016f816102ba565b92915050565b600081519050610184816102d1565b92915050565b60006020828403121561019c57600080fd5b60006101aa84828501610160565b91505092915050565b6000602082840312156101c557600080fd5b60006101d384828501610175565b91505092915050565b6101e58161025a565b82525050565b6101f481610296565b82525050565b6102038161028c565b82525050565b600060208201905061021e60008301846101dc565b92915050565b600060208201905061023960008301846101eb565b92915050565b600060208201905061025460008301846101fa565b92915050565b60006102658261026c565b9050919050565b600073ffffffffffffffffffffffffffffffffffffffff82169050919050565b6000819050919050565b60006102a1826102a8565b9050919050565b60006102b38261026c565b9050919050565b6102c38161025a565b81146102ce57600080fd5b50565b6102da8161028c565b81146102e557600080fd5b5056fea26469706673582212201e9b6d577c0ae4dab4d7709ae51d810533e215ef1e36eed9a6060cf3e841226964736f6c63430008000033",
  "immutableReferences": {},
  "source": "// // pragma solidity 0.6.6;\npragma solidity ^0.8.0;\n\n// import \"https://github.com/OpenZeppelin/openzeppelin-contracts/blob/master/contracts/token/ERC20/IERC20.sol\";\nimport \"@openzeppelin/contracts/token/ERC20/IERC20.sol\";\ncontract LinkCoin{\n    IERC20 public linkCoin; \n    \n    constructor(){\n        linkCoin = IERC20(0xa36085F69e2889c224210F603D836748e7dC0088);\n    }\n\n    function balanceOf(address account) external view returns (uint256){\n        return linkCoin.balanceOf(account);\n    }\n\n    /**\n     * Callback function used by VRF Coordinator\n     */\n    // function fulfillRandomness(bytes32 requestId, uint256 randomness) internal override {\n    //     randomResult = randomness;\n    // }\n}",
  "sourcePath": "/Users/gustavo/Desktop/project1/random_vrf/contracts/LinkCoin.sol",
  "compiler": {
    "name": "solc",
    "version": "0.8.0+commit.c7dfd78e.Emscripten.clang"
  },
  "schemaVersion": "3.3.4",
  "updatedAt": "2021-05-11T15:15:58.033Z",
  "networkType": "ethereum",
  "devdoc": {
    "kind": "dev",
    "methods": {},
    "version": 1
  },
  "userdoc": {
    "kind": "user",
    "methods": {},
    "version": 1
  }
}