{
  "contractName": "RandomNumberConsumer",
  "abi": [
    {
      "inputs": [],
      "stateMutability": "nonpayable",
      "type": "constructor"
    },
    {
      "inputs": [],
      "name": "randomResult",
      "outputs": [
        {
          "internalType": "uint256",
          "name": "",
          "type": "uint256"
        }
      ],
      "stateMutability": "view",
      "type": "function"
    },
    {
      "inputs": [
        {
          "internalType": "bytes32",
          "name": "requestId",
          "type": "bytes32"
        },
        {
          "internalType": "uint256",
          "name": "randomness",
          "type": "uint256"
        }
      ],
      "name": "rawFulfillRandomness",
      "outputs": [],
      "stateMutability": "nonpayable",
      "type": "function"
    },
    {
      "inputs": [
        {
          "internalType": "uint256",
          "name": "userProvidedSeed",
          "type": "uint256"
        }
      ],
      "name": "getRandomNumber",
      "outputs": [
        {
          "internalType": "bytes32",
          "name": "requestId",
          "type": "bytes32"
        }
      ],
      "stateMutability": "nonpayable",
      "type": "function"
    }
  ],
  "bytecode": "0x60c060405234801561001057600080fd5b5073dd3782915140c8f3b190b5d67eac6dc5760c46e973a36085f69e2889c224210f603d836748e7dc00888173ffffffffffffffffffffffffffffffffffffffff1660a08173ffffffffffffffffffffffffffffffffffffffff1660601b815250508073ffffffffffffffffffffffffffffffffffffffff1660808173ffffffffffffffffffffffffffffffffffffffff1660601b8152505050507f6c3699283bda56ad74f6b855546325b68d482e983852a7a82979cc4807b641f460001b60018190555067016345785d8a000060028190555060805160601c60a05160601c610a7961011c6000396000818160b801526102a201526000818161015901526102660152610a796000f3fe608060405234801561001057600080fd5b50600436106100415760003560e01c806342619f661461004657806394985ddd14610064578063b37217a414610080575b600080fd5b61004e6100b0565b60405161005b9190610887565b60405180910390f35b61007e60048036038101906100799190610511565b6100b6565b005b61009a6004803603810190610095919061054d565b610152565b6040516100a7919061079e565b60405180910390f35b60035481565b7f000000000000000000000000000000000000000000000000000000000000000073ffffffffffffffffffffffffffffffffffffffff163373ffffffffffffffffffffffffffffffffffffffff1614610144576040517f08c379a000000000000000000000000000000000000000000000000000000000815260040161013b90610867565b60405180910390fd5b61014e8282610257565b5050565b60006002547f000000000000000000000000000000000000000000000000000000000000000073ffffffffffffffffffffffffffffffffffffffff166370a08231306040518263ffffffff1660e01b81526004016101b09190610745565b60206040518083038186803b1580156101c857600080fd5b505afa1580156101dc573d6000803e3d6000fd5b505050506040513d601f19601f820116820180604052508101906102009190610576565b1015610241576040517f08c379a000000000000000000000000000000000000000000000000000000000815260040161023890610847565b60405180910390fd5b61025060015460025484610262565b9050919050565b806003819055505050565b60007f000000000000000000000000000000000000000000000000000000000000000073ffffffffffffffffffffffffffffffffffffffff16634000aea07f00000000000000000000000000000000000000000000000000000000000000008587866040516020016102d59291906107b9565b6040516020818303038152906040526040518463ffffffff1660e01b815260040161030293929190610760565b602060405180830381600087803b15801561031c57600080fd5b505af1158015610330573d6000803e3d6000fd5b505050506040513d601f19601f8201168201806040525081019061035491906104e8565b5060006103758584306000808a8152602001908152602001600020546103c7565b905061039d60016000808881526020019081526020016000205461040390919063ffffffff16565b600080878152602001908152602001600020819055506103bd8582610461565b9150509392505050565b6000848484846040516020016103e094939291906107e2565b6040516020818303038152906040528051906020012060001c9050949350505050565b600080828461041291906108cf565b905083811015610457576040517f08c379a000000000000000000000000000000000000000000000000000000000815260040161044e90610827565b60405180910390fd5b8091505092915050565b60008282604051602001610476929190610719565b60405160208183030381529060405280519060200120905092915050565b6000815190506104a3816109fe565b92915050565b6000813590506104b881610a15565b92915050565b6000813590506104cd81610a2c565b92915050565b6000815190506104e281610a2c565b92915050565b6000602082840312156104fa57600080fd5b600061050884828501610494565b91505092915050565b6000806040838503121561052457600080fd5b6000610532858286016104a9565b9250506020610543858286016104be565b9150509250929050565b60006020828403121561055f57600080fd5b600061056d848285016104be565b91505092915050565b60006020828403121561058857600080fd5b6000610596848285016104d3565b91505092915050565b6105a881610925565b82525050565b6105b781610943565b82525050565b6105ce6105c982610943565b6109aa565b82525050565b60006105df826108a2565b6105e981856108ad565b93506105f9818560208601610977565b610602816109ed565b840191505092915050565b600061061a601b836108be565b91507f536166654d6174683a206164646974696f6e206f766572666c6f7700000000006000830152602082019050919050565b600061065a602b836108be565b91507f4e6f7420656e6f756768204c494e4b202d2066696c6c20636f6e74726163742060008301527f77697468206661756365740000000000000000000000000000000000000000006020830152604082019050919050565b60006106c0601f836108be565b91507f4f6e6c7920565246436f6f7264696e61746f722063616e2066756c66696c6c006000830152602082019050919050565b6106fc8161096d565b82525050565b61071361070e8261096d565b6109b4565b82525050565b600061072582856105bd565b6020820191506107358284610702565b6020820191508190509392505050565b600060208201905061075a600083018461059f565b92915050565b6000606082019050610775600083018661059f565b61078260208301856106f3565b818103604083015261079481846105d4565b9050949350505050565b60006020820190506107b360008301846105ae565b92915050565b60006040820190506107ce60008301856105ae565b6107db60208301846106f3565b9392505050565b60006080820190506107f760008301876105ae565b61080460208301866106f3565b610811604083018561059f565b61081e60608301846106f3565b95945050505050565b600060208201905081810360008301526108408161060d565b9050919050565b600060208201905081810360008301526108608161064d565b9050919050565b60006020820190508181036000830152610880816106b3565b9050919050565b600060208201905061089c60008301846106f3565b92915050565b600081519050919050565b600082825260208201905092915050565b600082825260208201905092915050565b60006108da8261096d565b91506108e58361096d565b9250827fffffffffffffffffffffffffffffffffffffffffffffffffffffffffffffffff0382111561091a576109196109be565b5b828201905092915050565b60006109308261094d565b9050919050565b60008115159050919050565b6000819050919050565b600073ffffffffffffffffffffffffffffffffffffffff82169050919050565b6000819050919050565b60005b8381101561099557808201518184015260208101905061097a565b838111156109a4576000848401525b50505050565b6000819050919050565b6000819050919050565b7f4e487b7100000000000000000000000000000000000000000000000000000000600052601160045260246000fd5b6000601f19601f8301169050919050565b610a0781610937565b8114610a1257600080fd5b50565b610a1e81610943565b8114610a2957600080fd5b50565b610a358161096d565b8114610a4057600080fd5b5056fea2646970667358221220342e4b4c55e585f5aef6c534c177f4b535b356a0428172cc64348996e319951164736f6c63430008000033",
  "immutableReferences": {
    "76": [
      {
        "length": 32,
        "start": 345
      },
      {
        "length": 32,
        "start": 614
      }
    ],
    "78": [
      {
        "length": 32,
        "start": 184
      },
      {
        "length": 32,
        "start": 674
      }
    ]
  },
  "source": "// pragma solidity 0.6.6;\npragma solidity ^0.8.0;\n\n// import \"@chainlink/contracts/src/v0.6/VRFConsumerBase.sol\";\nimport \"../chainlink/evm-contracts/src/v0.6/VRFConsumerBase.sol\";\n// import \"https://github.com/OpenZeppelin/openzeppelin-contracts/blob/master/contracts/token/ERC20/IERC20.sol\";\n\ncontract RandomNumberConsumer is VRFConsumerBase {\n\n    // IERC20 public linkCoin = IERC20(0xbc689667c13fb2a04f09272753760e38a95b998c);\n\n    bytes32 internal keyHash;\n    uint256 internal fee;\n    \n    uint256 public randomResult;\n    \n    /**\n     * Constructor inherits VRFConsumerBase\n     * \n     * Network: Kovan\n     * Chainlink VRF Coordinator address: 0xdD3782915140c8f3b190B5D67eAc6dc5760C46E9\n     * LINK token address:                0xa36085F69e2889c224210F603D836748e7dC0088\n     * Key Hash: 0x6c3699283bda56ad74f6b855546325b68d482e983852a7a82979cc4807b641f4\n     */\n    constructor() \n        VRFConsumerBase(\n            0xdD3782915140c8f3b190B5D67eAc6dc5760C46E9, // VRF Coordinator\n            0xa36085F69e2889c224210F603D836748e7dC0088  // LINK Token\n        ) \n    {\n        keyHash = 0x6c3699283bda56ad74f6b855546325b68d482e983852a7a82979cc4807b641f4;\n        fee = 0.1 * 10 ** 18; // 0.1 LINK (varies by network)\n    }\n    \n    /** \n     * Requests randomness from a user-provided seed\n     */\n    function getRandomNumber(uint256 userProvidedSeed) public returns (bytes32 requestId) {\n        require(LINK.balanceOf(address(this)) >= fee, \"Not enough LINK - fill contract with faucet\");\n        return requestRandomness(keyHash, fee, userProvidedSeed);\n    }\n\n    /**\n     * Callback function used by VRF Coordinator\n     */\n    function fulfillRandomness(bytes32 requestId, uint256 randomness) internal override {\n        randomResult = randomness;\n    }\n}",
  "sourcePath": "/Users/gustavo/Desktop/project1/random_vrf/contracts/RandomChainlink.sol",
  "compiler": {
    "name": "solc",
    "version": "0.8.0+commit.c7dfd78e.Emscripten.clang"
  },
  "schemaVersion": "3.3.4",
  "updatedAt": "2021-05-11T15:05:35.281Z",
  "devdoc": {
    "kind": "dev",
    "methods": {},
    "version": 1
  },
  "userdoc": {
    "kind": "user",
    "methods": {
      "constructor": {
        "notice": "Constructor inherits VRFConsumerBase  Network: Kovan Chainlink VRF Coordinator address: 0xdD3782915140c8f3b190B5D67eAc6dc5760C46E9 LINK token address:                0xa36085F69e2889c224210F603D836748e7dC0088 Key Hash: 0x6c3699283bda56ad74f6b855546325b68d482e983852a7a82979cc4807b641f4"
      },
      "getRandomNumber(uint256)": {
        "notice": "Requests randomness from a user-provided seed"
      }
    },
    "version": 1
  }
}